:0300000002000EED
:0C000E00787FE4F6D8FD758108020055EB
:080003000E0C0D090B030706AA
:0300DD0001080017
:1000CC00D2AF758901758CF8758ACDD2A9D28C8086
:0100DC00FE25
:03000B0002009A56
:0D009A00C0E0C083C082C0D075D000C00798
:1000A700758CF8758ACDAF905307F0E5089000037B
:0A00B7009342078F900508530807D5
:0B00C100D007D0D0D082D083D0E03236
:10001A000200CCE493A3F8E493A34003F68001F230
:10002A0008DFF48029E493A3F85407240CC8C333E7
:10003A00C4540F4420C8834004F456800146F6DFB6
:10004A00E4800B01020408102040809000DDE47E69
:10005A00019360BCA3FF543F30E509541FFEE493AB
:10006A00A360010ECF54C025E060A840B8E493A372
:10007A00FAE493A3F8E493A3C8C582C8CAC583CA9D
:10008A00F0A3C8C582C8CAC583CADFE9DEE780BE55
:0100E000001F
:00000001FF
