:0300000002028A6F
:0C028A00787FE4F6D8FD7581390202D1BE
:10049B007580FFC290D291D295AF80C295EF20E7C5
:0104AB00F65A
:0104AC00222D
:1004D000AE0712049BC290C2918E80D295C2952223
:1004E000AE0712049BD290C2918E80D295C2952203
:1004AD00ED7004AC078004EF2440FCEC4480FF02A7
:0204BD0004D069
:10038F008B368A3789381204ADAB36AA37A93812A3
:10039F00000E60130538E5387002053714F91200A6
:0803AF000EFF1204E080E222BF
:100474007F381204D07F0C1204D07F061204D07F80
:04048400010204D09D
:0C04F0007765656B0000301208100213E5
:0B04FC00C100010900010A0001080016
:1001A6007521AAD2AF7F017E001203161204071230
:1001B60004743000FDC2007B007A0079221203DF4E
:1001C600E521652260EC752A32752B30E528C4548A
:1001D6000F2430F52CE528540F2430F52D752E2DDF
:1001E600E526C4540F2430F52FE526540F2430F5A8
:1001F6003075312DE525C4540F2430F532E52554EC
:100206000F2430F533E4F534FB7A00792AFDFF122A
:10021600038FE527540F2430F52AE4F52B7BFF7A6C
:100226000479F0FD7F0B12038F7B007A00792AE4B4
:10023600FD7F0F12038FE524C4540F2430F52AE501
:1002460024540F2430F52B752C3AE523C4540F247F
:1002560030F52DE523540F2430F52E752F3AE5227F
:10026600C4540F2430F530E522540F2430F531E420
:10027600F532FB7A00792A7D017F0412038F8522ED
:04028600210201B898
:100442007E01EE60135F6004D2B48002C2B4D2B502
:0A045200C2B5EE25E0FE80EAD2B448
:01045C00227D
:10045D00E4FF7E01EE600F30B4024207D2B5C2B5A3
:06046D00EE25E0FE80EE2A
:010473002266
:10048800D297EF25E04480FF120442AF05120442E0
:03049800C29722E6
:1004BF00D297EF25E04481FF12044212045DC297E8
:0104CF00220A
:0603B7008B368A378938FD
:1003BD00D2977FBE120442E4FDAB36AA37A9388D21
:1003CD0082758300120027FF1204420DBD08EAC298
:0103DD009788
:0103DE0022FC
:0603DF008B368A378938D5
:1003E500D2977FBF120442E4FD12045DAB36AA37F3
:1003F500A9388D82758300EF1200540DBD08EAC23D
:01040500975F
:0104060022D3
:10040700C297C2B5E4FF1204BFEF30E710E4FD7FE7
:0D041700071204887BFF7A0479F51203B701
:0104240022B5
:1003160075390075381075370E753600E4FCFDAB7F
:1003260039AA38A937A836120076E47BE87A03F9A9
:10033600F81201018F398E388D378C36C3E4953922
:10034600F539E49538F53874019537F537E495367F
:10035600F536E539240CF539E43538F538E4353722
:10036600F537E43536F536AF39AE38AD37FC7808B3
:100376001201938F0985390A5389F043890185094A
:080386008C850A8AD2A9D28CF1
:01038E00224C
:03000B00020425C7
:04042500C0E0C0D0A3
:1004290085098C850A8A0508E508C394C8400575BD
:040439000800D200E5
:05043D00D0D0D0E03238
:100296000201A6E493A3F8E493A34003F68001F2D7
:1002A60008DFF48029E493A3F85407240CC8C33369
:1002B600C4540F4420C8834004F456800146F6DF38
:1002C600E4800B01020408102040809004FCE47EC8
:1002D600019360BCA3FF543F30E509541FFEE4932D
:1002E600A360010ECF54C025E060A840B8E493A3F4
:1002F600FAE493A3F8E493A3C8C582C8CAC583CA1F
:10030600F0A3C8C582C8CAC583CADFE9DEE780BED6
:0105070000F3
:10000E00BB010689828A83E0225002E722BBFE02F0
:09001E00E32289828A83E4932223
:10002700BB010CE58229F582E5833AF583E022508E
:1000370006E92582F8E622BBFE06E92582F8E222D8
:0D004700E58229F582E5833AF583E49322F2
:10005400F8BB010DE58229F582E5833AF583E8F0E2
:10006400225006E92582C8F622BBFE05E92582C88E
:02007400F22276
:10007600E88FF0A4CC8BF0A42CFCE98EF0A42CFC29
:100086008AF0EDA42CFCEA8EF0A4CDA8F08BF0A4A7
:100096002DCC3825F0FDE98FF0A42CCD35F0FCEB06
:1000A6008EF0A4FEA9F0EB8FF0A4CFC5F02ECD39CB
:0F00B600FEE43CFCEAA42DCE35F0FDE43CFC2238
:1000C50075F008758200EF2FFFEE33FECD33CDCCF2
:1000D50033CCC58233C5829BED9AEC99E582984075
:1000E5000CF582EE9BFEED9AFDEC99FC0FD5F0D652
:1000F500E4CEFBE4CDFAE4CCF9A88222B800C1B97C
:100105000059BA002DEC8BF084CFCECDFCE5F0CBB9
:10011500F97818EF2FFFEE33FEED33FDEC33FCEBF2
:1001250033FB10D703994004EB99FB0FD8E5E4F9AD
:10013500FA227818EF2FFFEE33FEED33FDEC33FC9A
:10014500C933C910D7059BE99A4007EC9BFCE99A8E
:10015500F90FD8E0E4C9FAE4CCFB2275F010EF2FD3
:10016500FFEE33FEED33FDCC33CCC833C810D707D3
:100175009BEC9AE899400AED9BFDEC9AFCE899F80E
:0E0185000FD5F0DAE4CDFBE4CCFAE4C8F922A1
:10019300E8600FECC313FCED13FDEE13FEEF13FF4A
:0301A300D8F1226E
:00000001FF
