:03000000020222D7
:0C022200787FE4F6D8FD75810A020269BD
:10013200FFFFFFFFFFFFFFFFFF7FFFFFFFFFFF7FCD
:10014200FF3F7F7F7F7F7F3FFF1F3F3F3F3F3F1F3D
:10015200FF0F9F9F9F9F9F0FFF87CFCFCFCFCF874D
:10016200FFC3E7E7E7E7E7C3FFE1737373F3F3E185
:10017200FF7039393979F9F0FF381C1C1C3C7CF8C6
:10018200FF9C0E0E0E1E3E7CFFCE0707070F1F3E82
:10019200FF67030303070F9FFF330101010387CFAB
:1001A200FF9900000081C3E7FFCC808080C0E1F3AB
:1001B200FFE6C0C0C0E0F0F9FF736060607078FCD9
:1001C200FF39303030383C7EFF9C9898989C1E3F17
:1001D200FFCECCCCCCCE0F1FFF6766666667070FDB
:1001E200FF33333333330387FF999999999981C345
:1001F200FFCCCCCCCCCCC0E1FFE6E6E6E6E6E0F014
:10020200FFF3F3F3F3F3F0F8FFF9F9F9F9F9F8FC76
:10021200FFFCFCFCFCFCFCFEFFFEFEFEFEFEFEFF05
:0902C300010800010900010A0014
:1002AE00D2AFC294C293758901758CFC758A67D2E0
:0502BE00A9D28C80FEB6
:03000B0002000EE2
:0F000E00C0E0C0F0C083C082C0D075D000C00079
:10001D00758CFC758A677580FFE508B40800400390
:10002D0002010E900037F828287302004F02006776
:10003D0002007F0200960200AD0200C40200DB0246
:10004D0000F2C292C291C2900508E50A75F008A4AB
:10005D002432F582E43401020108C292C291D29099
:10006D000508E50A75F008A42433F582E43401028D
:10007D000108C292D291C2900508E50A75F008A454
:10008D002434F582E434018072C292D291D290056B
:10009D0008E50A75F008A42435F582E43401805B87
:1000AD00D292C291C2900508E50A75F008A42436D3
:1000BD00F582E434018044D292C291D2900508E5D4
:1000CD000A75F008A42437F582E43401802DD2920C
:1000DD00D291C2900508E50A75F008A42438F5827E
:1000ED00E434018016D292D291D290750800E50ABF
:1000FD0075F008A42439F582E43401F583E493F511
:10010D00800509E509C394FA400E750900050AE555
:08011D000A941E4003750A005C
:0D012500D000D0D0D082D083D0F0D0E03216
:10022E000202AEE493A3F8E493A34003F68001F236
:10023E0008DFF48029E493A3F85407240CC8C333D1
:10024E00C4540F4420C8834004F456800146F6DFA0
:10025E00E4800B01020408102040809002C3E47E6B
:10026E00019360BCA3FF543F30E509541FFEE49395
:10027E00A360010ECF54C025E060A840B8E493A35C
:10028E00FAE493A3F8E493A3C8C582C8CAC583CA87
:10029E00F0A3C8C582C8CAC583CADFE9DEE780BE3F
:0102CC000031
:00000001FF
