:030000000200BC3F
:0C00BC00787FE4F6D8FD75812002010376
:10014800020B024B029302BA0310037003DC04177C
:10015800049705270575062006E007B8FC8FFCEF15
:10016800FD45FD6CFDB5FDF5FE2EFE48FE78FEA3AF
:10017800FEB7FEDBFEFBFF170102030101020301CC
:100188000304050304050506050403010506050423
:100198000301010501010501040404040404040425
:1001A800040408040408030103010404030103010F
:0801B800040404040804040817
:0A022400C180C1010108FF010900BB
:1001C000D2AF75890185088C85098AD2A9D28C1293
:1001D000000E900000AF82AE83E4FCFD7B407A9C71
:0B01E000F9F8D31201FD40E7A380EA0C
:10000E00E4FBFAFDFCFFFEF9E9C394204003020075
:10001E00BB3001FDC201EB4A7070E9900180931470
:10002E00F50A25E02464F582E43401F583E493F5C2
:10003E0008E50A25E02464F582E43401F5837401B1
:10004E0093F509E99001A093FF7E00E50A25E024CF
:10005E0048F582E43401F583E493FC740193FD12B8
:10006E0001EBEF7802CEC313CE13D8F9FDAC0678B0
:10007E0002CEC313CE13D8F9FFC3ED9FFFEC9EFE45
:10008E00D2000BBB00010A020016C3EB9DEA9C4096
:10009E0007E4FAFB090200160BBB00010AEB6F70B6
:0D00AE0002EA6E6003020016C20002001696
:0100BB002222
:03000B00020213DB
:1002130085088C85098AD201300003B29632D296C2
:0102230032A8
:1000C8000201C0E493A3F8E493A34003F68001F28D
:1000D80008DFF48029E493A3F85407240CC8C33339
:1000E800C4540F4420C8834004F456800146F6DF08
:1000F800E4800B0102040810204080900224E47E72
:10010800019360BCA3FF543F30E509541FFEE493FC
:10011800A360010ECF54C025E060A840B8E493A3C3
:10012800FAE493A3F8E493A3C8C582C8CAC583CAEE
:10013800F0A3C8C582C8CAC583CADFE9DEE780BEA6
:01022E0000CF
:1001EB00EF8DF0A4A8F0CF8CF0A428CE8DF0A42E28
:0201FB00FE22E2
:1001FD00EB9FF5F0EA9E42F0E99D42F0EC6480C879
:06020D0064809845F02218
:00000001FF
