:030000000200F209
:0C00F200787FE4F6D8FD75810902013921
:06000300010800010900E4
:10017E00D2AF7589017FA07E0F120245900000AFAD
:10018E0082AE83E4FCFD7B407A9CF9F8D312000E1C
:10019E004003A380EA12027AE4F583F582AF82AEC1
:1001AE0083E4FCFD7B407A9CF9F8D312000E4003E9
:1001BE00A380EA7FE87E03120245E4F583F582AF61
:1001CE0082AE83E4FCFD7B407A9CF9F8D312000EDC
:1001DE004003A380EA12027AE4F583F582AF82AE81
:1001EE0083E4FCFD7B407A9CF9F8D312000E408527
:0301FE00A380EAF1
:10024500EF25E0FFEE33AB07FAE4F9F8FF7E107D0A
:100255000EFC120201C3E49FFFE49EAD07F5088D75
:0B02650009758CFF758AFED2A9D28CAF
:01027000226B
:05027A00C2A9C28C22A4
:03000B000202717D
:0902710085088C85098AB29632D9
:1000FE0002017EE493A3F8E493A34003F68001F299
:10010E0008DFF48029E493A3F85407240CC8C33302
:10011E00C4540F4420C8834004F456800146F6DFD1
:10012E00E4800B0102040810204080900003E47E5E
:10013E00019360BCA3FF543F30E509541FFEE493C6
:10014E00A360010ECF54C025E060A840B8E493A38D
:10015E00FAE493A3F8E493A3C8C582C8CAC583CAB8
:10016E00F0A3C8C582C8CAC583CADFE9DEE780BE70
:0100090000F6
:10020100C2D5E830E70FB2D5E4C39BFBE49AFAE428
:1002110099F9E498F8EC30E717B2D51202371200D9
:1002210060E4C39BFBE49AFAE499F9E498F880034B
:1002310012006030D50DE4C39FFFE49EFEE49DFDF6
:04024100E49CFC221B
:10000E00EB9FF5F0EA9E42F0E99D42F0EC6480C869
:06001E0064809845F02209
:1000240075F008758200EF2FFFEE33FECD33CDCC93
:1000340033CCC58233C5829BED9AEC99E582984016
:100044000CF582EE9BFEED9AFDEC99FC0FD5F0D6F3
:10005400E4CEFBE4CDFAE4CCF9A88222B800C1B91D
:100064000059BA002DEC8BF084CFCECDFCE5F0CB5B
:10007400F97818EF2FFFEE33FEED33FDEC33FCEB94
:1000840033FB10D703994004EB99FB0FD8E5E4F94F
:10009400FA227818EF2FFFEE33FEED33FDEC33FC3C
:1000A400C933C910D7059BE99A4007EC9BFCE99A30
:1000B400F90FD8E0E4C9FAE4CCFB2275F010EF2F75
:1000C400FFEE33FEED33FDCC33CCC833C810D70775
:1000D4009BEC9AE899400AED9BFDEC9AFCE899F8B0
:0E00E4000FD5F0DAE4CDFBE4CCFAE4C8F92243
:00000001FF
