:0300000002036791
:0C036700787FE4F6D8FD75813D0203AEFE
:0B05C5000000000000000000DFF62234
:10052F00C2AFC2B27F321205C5D2B27F061205C565
:0B053F00A2B2920230B2FDD2AFA202C5
:01054A00228E
:0204EC00AE0759
:1004EE00C2AF7D01ED601AC2B200005E7004C2B2EE
:1004FE008002D2B27F061205C5D2B2ED25E0FD8094
:03050E00E3D2AF86
:0105110022C7
:10049A00C2AF7D01ED601EC2B20000D2B2000020E0
:1004AA00B205F452068003ED42067F061205C5ED39
:0904BA0025E0FD80DFD2AFAF06A2
:0104C3002216
:10054B0012052F920120010A7FCC1204EC7F44127A
:05055B0004ECA201B355
:010560002278
:10046C0012052F92012001227FCC1204EC7FBE12C8
:10047C0004EC12049AAC0712049AEFFEAD047C0053
:0D048C00E42DFFEC3E8FF0120081A201B3C1
:010499002240
:100575007580FFC290D291D295AF80C295EF20E7EA
:01058500F67F
:010586002252
:10059900AE07120575C290C2918E80D295C295227E
:1005A900AE07120575D290C2918E80D295C295225E
:10058700ED7004AC078004EF2440FCEC4480FF02CC
:020597000599C4
:1004C4008B318A328933120587AB31AA32A93312B0
:1004D400000E60130533E5337002053214F912007F
:0804E4000EFF1205A980E222BF
:100561007F381205997F0C1205997F061205997F34
:0405710001020599E5
:070003006572726F722100AB
:0B05B900C103010900010A0001080055
:1002C800D2AF7F0A7E001203F312054B120561308C
:1002D80003FDC2037B007A00792112046C9200307E
:1002E800006BE522AE217804CEA2E713CE13D8F82E
:1002F800FDAC06752300E522540FF5247B007A0037
:100308007925120225AB070B74252FF8762EAE231C
:10031800AF247C007D0A1200397D1012004B8E2319
:100328008F24EF2430FFAE030B74252EF8A607EBBD
:10033800C39406500BAF030B74252FF8762080EF7B
:1003480074252BF8E4F6FB7A00792580077BFF7A81
:0F035800007903E4FDFF1204C412054B0202D723
:0A0225008B318A3289338C348D3519
:10022F00E4F536F537C3E53464809480501CC3E49D
:10023F009535F535E49534F5340533E5337002051E
:10024F003214F9742D1200270537AE34AF357C0008
:10025F007D0A12004BAF05AE36053674382EF8A660
:10026F0007AE34AF357C007D0A12004B8E348F35CC
:10027F00D3E5359400E5346480948050CDE5362580
:10028F0037F537AF361536D3EF64809480401D7441
:10029F00382536F8E62430FFAB310533E533AA3283
:1002AF007002053214F9EF12002780D7AB31AA3252
:0802BF00A933E4120027AF3758
:0102C7002214
:1003F30075340075331075320E753100E4FCFDABB6
:1004030034AA33A932A8311200A0E47BE87A03F9B5
:10041300F812012B8F348E338D328C31C3E4953433
:10042300F534E49533F53374019532F532E49531BF
:10043300F531E534240CF534E43533F533E4353262
:10044300F532E43531F531AF34AE33AD32FC7808F3
:100453001201BD8F0985340A5389F0438901850947
:080463008C850A8AD2A9D28C13
:01046B00226E
:03000B00020512D9
:04051200C0E0C0D0B5
:1005160085098C850A8A0508E508C3946440057533
:040526000800D203F4
:05052A00D0D0D0E0324A
:100373000202C8E493A3F8E493A34003F68001F2D6
:1003830008DFF48029E493A3F85407240CC8C3338B
:10039300C4540F4420C8834004F456800146F6DF5A
:1003A300E4800B01020408102040809005B9E47E2C
:1003B300019360BCA3FF543F30E509541FFEE4934F
:1003C300A360010ECF54C025E060A840B8E493A316
:1003D300FAE493A3F8E493A3C8C582C8CAC583CA41
:1003E300F0A3C8C582C8CAC583CADFE9DEE780BEF9
:0105C4000036
:10000E00BB010689828A83E0225002E722BBFE02F0
:09001E00E32289828A83E4932223
:10002700BB010689828A83F0225002F722BBFE01B8
:02003700F322B2
:10003900EF8DF0A4A8F0CF8CF0A428CE8DF0A42EDB
:02004900FE2295
:10004B00C2D5EC30E709B2D5E4C39DFDE49CFCEED0
:10005B0030E715B2D5E4C39FFFE49EFE1201D0C377
:10006B00E49DFDE49CFC80031201D030D507C3E472
:06007B009FFFE49EFE223F
:10008100BB010A89828A83F0E5F0A3F0225006F7CA
:0F00910009A7F01922BBFE06F3E5F009F31922C7
:1000A000E88FF0A4CC8BF0A42CFCE98EF0A42CFCFF
:1000B0008AF0EDA42CFCEA8EF0A4CDA8F08BF0A47D
:1000C0002DCC3825F0FDE98FF0A42CCD35F0FCEBDC
:1000D0008EF0A4FEA9F0EB8FF0A4CFC5F02ECD39A1
:0F00E000FEE43CFCEAA42DCE35F0FDE43CFC220E
:1000EF0075F008758200EF2FFFEE33FECD33CDCCC8
:1000FF0033CCC58233C5829BED9AEC99E58298404B
:10010F000CF582EE9BFEED9AFDEC99FC0FD5F0D627
:10011F00E4CEFBE4CDFAE4CCF9A88222B800C1B951
:10012F000059BA002DEC8BF084CFCECDFCE5F0CB8F
:10013F00F97818EF2FFFEE33FEED33FDEC33FCEBC8
:10014F0033FB10D703994004EB99FB0FD8E5E4F983
:10015F00FA227818EF2FFFEE33FEED33FDEC33FC70
:10016F00C933C910D7059BE99A4007EC9BFCE99A64
:10017F00F90FD8E0E4C9FAE4CCFB2275F010EF2FA9
:10018F00FFEE33FEED33FDCC33CCC833C810D707A9
:10019F009BEC9AE899400AED9BFDEC9AFCE899F8E4
:0E01AF000FD5F0DAE4CDFBE4CCFAE4C8F92277
:1001BD00E8600FECC313FCED13FDEE13FEEF13FF20
:0301CD00D8F12244
:1001D000BC000BBE0029EF8DF084FFADF022E4CC13
:1001E000F875F008EF2FFFEE33FEEC33FCEE9DECDC
:1001F000984005FCEE9DFE0FD5F0E9E4CEFD22ED22
:10020000F8F5F0EE8420D21CFEADF075F008EF2F6B
:10021000FFED33FD4007985006D5F0F222C398FD5C
:050220000FD5F0EA22F9
:00000001FF
