:030000000200C338
:0C00C300787FE4F6D8FD75810802010A80
:08000300FF9900000081C3E732
:030164000108008F
:10014F00D2AFC294C293758901758CFC758A67D240
:05015F00A9D28C80FE16
:03000B0002000EE2
:0D000E00C0E0C083C082C0D075D000C0002B
:10001B00758CFC758A677580FFE508B40800400392
:10002B000200B8900035F828287302004D02005AE0
:10003B0002006702007402008102008E02009B0224
:10004B0000A8C292C291C2900508900003805AC2C8
:10005B0092C291D2900508900004804DC292D29129
:10006B00C29005089000058040C292D291D29005B3
:10007B00089000068033D292C291C290050890007E
:10008B00078026D292C291D2900508900008801961
:10009B00D292D291C2900508900009800CD292D2D4
:0D00AB0091D29075080090000AE493F58052
:0B00B800D000D0D0D082D083D0E03246
:1000CF0002014FE493A3F8E493A34003F68001F2F7
:1000DF0008DFF48029E493A3F85407240CC8C33332
:1000EF00C4540F4420C8834004F456800146F6DF01
:1000FF00E4800B0102040810204080900164E47E2C
:10010F00019360BCA3FF543F30E509541FFEE493F5
:10011F00A360010ECF54C025E060A840B8E493A3BC
:10012F00FAE493A3F8E493A3C8C582C8CAC583CAE7
:10013F00F0A3C8C582C8CAC583CADFE9DEE780BE9F
:010167000097
:00000001FF
