:03000000020156A4
:0C015600787FE4F6D8FD75811702019D4A
:10000E00C0F9A4B0999282F880908883C6A1868E9A
:100364000709FFFFFFFFFFFFFF011000011100015C
:08037400120001130001080052
:1002D000D2AFC294D2937F017E001201E27F807E72
:1002E000251202F8E512540F90000E93F509E5125D
:0802F000C4540F93F50A80ECE1
:1001E20075170075161075150E751400E4FCFDAB3D
:1001F20017AA16A915A814120026E47BE87A03F9B7
:10020200F81200B18F178E168D158C14C3E4951752
:10021200F517E49516F51674019515F515E4951480
:10022200F514E517240DF517E43516F516E4351522
:10023200F515E43514F514AF17AE16AD15FC7808B4
:100242001201438F108517115389F04389018510DC
:080252008C85118AD2A9D28C1F
:01025A002281
:1002F80075985053890F438920AB07AA06E4F9F88B
:100308007F807E70FDFC12025BEFF404F58D858D15
:080318008BC2ABD2ACD28E22E5
:100343007580FFE59054F84508F59074092508F881
:10035300E6F580E508C394065003050822E4F50892
:010363002277
:03000B00020320CD
:10032000C0E0C0D075D000C00085108C85118A1245
:100330000343E5137004D2968002B296D000D0D069
:03034000D0E032D8
:0300230002029F37
:10029F00C0E0C0D075D000C007309819C2988599BA
:1002AF0012851299E512B4420CE51370047F018098
:1002BF00027F008F13309902C299D007D0D0D0E0BF
:0102CF0032FC
:100162000202D0E493A3F8E493A34003F68001F2E1
:1001720008DFF48029E493A3F85407240CC8C3339E
:10018200C4540F4420C8834004F456800146F6DF6D
:10019200E4800B0102040810204080900364E47E96
:1001A200019360BCA3FF543F30E509541FFEE49362
:1001B200A360010ECF54C025E060A840B8E493A329
:1001C200FAE493A3F8E493A3C8C582C8CAC583CA54
:1001D200F0A3C8C582C8CAC583CADFE9DEE780BE0C
:01037C000080
:10002600E88FF0A4CC8BF0A42CFCE98EF0A42CFC79
:100036008AF0EDA42CFCEA8EF0A4CDA8F08BF0A4F7
:100046002DCC3825F0FDE98FF0A42CCD35F0FCEB56
:100056008EF0A4FEA9F0EB8FF0A4CFC5F02ECD391B
:0F006600FEE43CFCEAA42DCE35F0FDE43CFC2288
:1000750075F008758200EF2FFFEE33FECD33CDCC42
:1000850033CCC58233C5829BED9AEC99E5829840C5
:100095000CF582EE9BFEED9AFDEC99FC0FD5F0D6A2
:1000A500E4CEFBE4CDFAE4CCF9A88222B800C1B9CC
:1000B5000059BA002DEC8BF084CFCECDFCE5F0CB0A
:1000C500F97818EF2FFFEE33FEED33FDEC33FCEB43
:1000D50033FB10D703994004EB99FB0FD8E5E4F9FE
:1000E500FA227818EF2FFFEE33FEED33FDEC33FCEB
:1000F500C933C910D7059BE99A4007EC9BFCE99ADF
:10010500F90FD8E0E4C9FAE4CCFB2275F010EF2F23
:10011500FFEE33FEED33FDCC33CCC833C810D70723
:100125009BEC9AE899400AED9BFDEC9AFCE899F85E
:0E0135000FD5F0DAE4CDFBE4CCFAE4C8F922F1
:10025B00C2D5E830E70FB2D5E4C39BFBE49AFAE4CE
:10026B0099F9E498F8EC30E717B2D5120291120025
:10027B00B1E4C39BFBE49AFAE499F9E498F88003A0
:10028B001200B130D50DE4C39FFFE49EFEE49DFD4B
:04029B00E49CFC22C1
:10014300E8600FECC313FCED13FDEE13FEEF13FF9A
:03015300D8F122BE
:00000001FF
