:030000000208886B
:0C08880078FFE4F6D8FD7581410208CF2E
:10000E00BDF0C9B3CCB2B9A4D7F7CAD20020777766
:10001E00772E6B696E6773742E6F726720002020C7
:10002E00202020202020202020202020202000D72B
:10003E00D6B7FBCFD4CABED1DDCABE002052756E74
:10004E002054696D653A3373000000000000000013
:10005E000000000000000000000000000000000092
:10006E000000000000000000000000000000000082
:10007E000000000000000000003C383C000F0000B3
:10008E0000000000003C383C000F000000000000A3
:10009E00003C3C3C000F000000000000003C3C3CDB
:1000AE00000F000000000000001C7C78000F000014
:1000BE0000000000001E7C783F0F0FC0FC3FE7835E
:1000CE00F01E7E787F8F1FE1FE3FFFC7F81E7E7801
:1000DE00FFCF3FF3FF3FFFCFFC1EFE78F3CF3CF385
:1000EE00CF3CF3CF3C1EEE78F3CF3CF3CF3CF3CFB7
:1000FE003C1EEF78F3CF3CF3CF3CF3CF3C1EEFF832
:10010E00F3CF3CF3CF3CF3CF3C1FEFF0F3CF3CF3F8
:10011E00CF3CF3CF3C0FE7F0FFCF3CF3CF3CF3CF18
:10012E00FC0FC7F0FFCF3C03CF3CF3CFFC0FC7F063
:10013E00FFCF3CF3CF3CF3CFFC0FC3F0F00F3CF3FB
:10014E00CF3CF3CF000FC3F0F3CF3CF3CF3CF3CF54
:10015E003C0FC3F0F3CF3CF3CF3CF3CF3C0F83F017
:10016E00F3CF3CF3CF3CF3CF3C0F81F0F3CF3CF316
:10017E00CF3CF3CF3C0781E0FFCF3FF3FF3CF3CF03
:10018E00FC0781E07F8F1FE1FE3CF3C7F80781E09B
:10019E003F0F0FC0FC3CF3C3F00000000000000056
:1001AE000000000000000000000000000000000041
:1001BE000000000000000000000000000000000031
:1001CE00000000000000000000FFFFFFFFFFFFFF28
:1001DE00FFFFFFFFFFFFFFFFFF800000000000009A
:1001EE000000000000000000018000000000000080
:1001FE00000001000000000001800000000000006F
:10020E00000001C00000000001800003800000001B
:10021E00800000C0000000000180CFFFE0000780DA
:10022E00C00600C0000007C001807000E0007E0123
:10023E00C00300030003FFC001806180E003F801EA
:10024E008003103F8001F8000180618060018C0303
:10025E0000003FE1C00000000180633C6000CC065E
:10026E0000003003C0000000018063FC6000C40C7D
:10027E000000600000000000018066386000C410BD
:10028E00000061F00000000001804F306000C78167
:10029E00803847C000000FFF018048E06000FF017A
:1002AE00C018018C001FFFFF018040E06007E403CF
:1002BE00000801FE01FE1800018041B8601EC40650
:1002CE0000002F87000018000180431F6000840487
:1002DE00000239860000180001804CE7E000840916
:1002EE00000231EC0004188001805070600184110E
:1002FE00C006178C00041870018040006001840154
:10030E00C004118C000C083C0180C1C060010401C6
:10031E00800C11F8000C081C0180C0E0600304037F
:10032E0080181F98001C180C0180C07060020C030E
:10033E0000181000001818040180C02060040C067C
:10034E0000180C18001018000180C7FF60080C0C74
:10035E0000181C1C000078000180FFFFE00004184C
:10036E000000380E000038000180C000E0000030B0
:10037E0000007006000018000180000060000060A0
:10038E000000C0060000000001800000400000C018
:10039E0000000002000000000180000000000100CB
:1003AE0000000000000000000180000000000000BE
:1003BE00000000000000000001FFFFFFFFFFFFFF35
:1003CE00FFFFFFFFFFFFFFFFFF00003D5500000096
:1003DE000000000000AABC000000003AAA000000C5
:1003EE000000000000555C000000003D5400600657
:1003FE0000000400002ABC000000003AA8007003B0
:10040E000000070000155C000000003D50003003A6
:10041E0000000300000ABC000000003AA000200209
:10042E002000030000055C000000003D400020029B
:10043E0030000301C002BC000000003A800023829D
:10044E00F0000300E0015C000000003D0000219B75
:10045E00800003187000BC000000003A000021F27A
:10046E00040003FE20005C000000003C0000398206
:10047E0004007F0E00003C00000000380001F182F5
:10048E000400030C00001C0000000038000FE18285
:10049E000C00030C00001C00000000380000E1B34B
:1004AE00FC00031800001C00000000380000E1C131
:1004BE00F800031FE0001C00000000380000FB984D
:1004CE0000000FFFF0001C00000000380001FB9C34
:1004DE000007FF0078001C000000003800036111C7
:1004EE000000030070001C000000003800034037BD
:1004FE00C0000300E0001C0000000038000641F8B8
:10050E00E0000300E0001C0000000038000C4080FA
:10051E00C0000300C0001C000000003C0010408C16
:10052E00C0000300C0003C000000003A000040FC88
:10053E00C000030FC0005C000000003D000040C082
:10054E00C0000307C000BC000000003A800040C09D
:10055E00C000030380015C000000003D4000C0FFAE
:10056E00C00003030002BC000000003AA000C0E17E
:10057E00C000030000055C000000003D500040C1BB
:10058E00C0000300000ABC000000003AA8004000B2
:10059E00C000020000155C000000003D5400000089
:1005AE0080000000002ABC000000003AAA000000F3
:1005BE000000000000555C000000003D55000000EA
:0905CE000000000000AABC0000BE
:0E0B6B00C101C10001080002090000010B00D9
:100B1200D2AF120B3A120A1C120AC53001FDC201F1
:060B22001207F380F62229
:0E0721008B2D8A2E892F8F338E328D318C30A6
:10072F00E4F534F535FFFEFDFCAB33AA32A931A851
:10073F0030C312063D5028AF33AE32AD31AC30125C
:10074F00062F8F338E328D318C30AB2D052FE52F49
:10075F00AA2E7002052E14F9742D12061D0535E40C
:10076F007B0AFAF9F8AF33AE32AD31AC301209D89B
:10077F00AF03AE34053474362EF8A607AF33AE325E
:10078F00AD31AC30E47B0AFAF9F81209D88F338E09
:10079F00328D318C30E4FFFEFDFCAB33AA32A93130
:1007AF00A830D312063D50B7E5342535F535AF34B3
:1007BF001534D3EF64809480401D74362534F8E6E9
:1007CF002430FFAB2D052FE52FAA2E7002052E1416
:1007DF00F9EF12061D80D7AB2DAA2EA92FE4120612
:0307EF001DAF3506
:0107F20022E4
:100AC5007530207531FF7532007533577B60E4FD55
:100AD5007F101209147BFF7A00790E7D207F10129A
:0F0AE5000A587BFF7A00791B7D30E4FF120A5814
:010AF40022DF
:100A9200200018D2007530207531FF753201753390
:100AA200D77B807D20E4FF12091422C2007530201A
:100AB2007531FF7532037533D77B807D20E4FF12D9
:020AC200091415
:010AC400220F
:1007F300050AE50A7002050964034509704175306D
:10080300407B80FDFF1209887BFF7A00792C7D20D5
:10081300E4FF120A587BFF7A00792C7D30E4FF1243
:100823000A587BFF7A00793DE4FD7F10120A587B5A
:10083300FF7A00794A7D10E4FF120A58120A92D314
:10084300E50A9403E5099400403A7B007A00792194
:10085300AE09AF0AE4FCFD120721AE070F74212E87
:10086300F8767374212FF8E4F6FB7A0079217D1072
:100873007F50120A580508E508C394034006E4F5BF
:0408830008120A92BB
:01088700224E
:100B3A005389F0438901758CDCE4F58AD2A9D28CF9
:010B4A002288
:03000B00020AF5F1
:040AF500C0E0C0D0CD
:100AF900758CDC758A00050BE50BC394644005759C
:040B09000B00D2010A
:050B0D00D0D0D0E03261
:100B28007580FFC290D291D295AF80C295EF20E731
:010B3800F6C6
:010B39002299
:100B4B00AE07120B28C290C2918E80D295C295220D
:100B5B00AE07120B28D290C2918E80D295C29522ED
:100A5800EFC4540FFFEDC4540FFDC3940240061DAC
:100A68001D74082FFFEDC454F02FFD7F30120B4B7F
:100A7800ED4480FF120B4B1205D7FF600C120B5B85
:090A8800740129F9E43AFA80EE48
:010A91002242
:060914008F2D8D2E8B2FAC
:10091A00E52DC4540FF52DE52F131313541FF52F8E
:10092A00E4F534F5357F36120B4BE4FDEDC3953013
:10093A00504BE52E2DFFAC2DC39420400874E02FB8
:10094A00FF74082CFCEF4480FF120B4BEC4480FF31
:10095A00120B4BE4FCECC3952F501FAB31AA32A902
:10096A00330535E535AE347002053414F5828E83CD
:0D097A001205F0FF120B5B0C80DB0D80AF4F
:01098700224D
:04098800AC07A9050A
:10098C00ECC4540FFCEB131313541FFB7F36120BE8
:10099C004BE4FDEDC395305032E92DFFAA04C3940E
:1009AC0020400874E02FFF74082AFAEF4480FF12ED
:1009BC000B4BEA4480FF120B4BE4FAEAC39B500842
:0B09CC00E4FF120B5B0A80F30D80C8F3
:0109D70022FD
:100A1C007F30120B4B7F01120B4B7F02120B4B7F63
:100A2C000C120B4B7F34120B4BE4FDED4480FF1288
:100A3C000B4B7F80120B4BE4FCE4FF120B5B0CBCEA
:0B0A4C0020F70DBD20E57F36120B4B9C
:010A5700227C
:10089400020B12E493A3F8E493A34003F68001F25D
:1008A40008DFF48029E493A3F85407240CC8C33365
:1008B400C4540F4420C8834004F456800146F6DF34
:1008C400E4800B0102040810204080900B6BE47E4E
:1008D400019360BCA3FF543F30E509541FFEE49329
:1008E400A360010ECF54C025E060A840B8E493A3F0
:1008F400FAE493A3F8E493A3C8C582C8CAC583CA1B
:10090400F0A3C8C582C8CAC583CADFE9DEE780BED2
:010B7900007B
:1005D700BB010689828A83E0225002E722BBFE0222
:0905E700E32289828A83E4932255
:1005F000BB010CE58229F582E5833AF583E02250C0
:1006000006E92582F8E622BBFE06E92582F8E22209
:0D061000E58229F582E5833AF583E4932223
:10061D00BB010689828A83F0225002F722BBFE01BC
:02062D00F322B6
:1009D800C2D5E830E70FB2D5E4C39BFBE49AFAE44A
:1009E80099F9E498F8EC30E717B2D5120A0E120616
:1009F8008FE4C39BFBE49AFAE499F9E498F880033E
:100A080012068F30D50DE4C39FFFE49EFEE49DFDE2
:040A1800E49CFC223C
:0E062F00C3E49FFFE49EFEE49DFDE49CFC22DC
:10063D00EB9FF5F0EA9E42F0E99D42F0EC6480C834
:06064D0064809845F022D4
:1006530075F008758200EF2FFFEE33FECD33CDCC5E
:1006630033CCC58233C5829BED9AEC99E5829840E1
:100673000CF582EE9BFEED9AFDEC99FC0FD5F0D6BE
:10068300E4CEFBE4CDFAE4CCF9A88222B800C1B9E8
:100693000059BA002DEC8BF084CFCECDFCE5F0CB26
:1006A300F97818EF2FFFEE33FEED33FDEC33FCEB5F
:1006B30033FB10D703994004EB99FB0FD8E5E4F91A
:1006C300FA227818EF2FFFEE33FEED33FDEC33FC07
:1006D300C933C910D7059BE99A4007EC9BFCE99AFB
:1006E300F90FD8E0E4C9FAE4CCFB2275F010EF2F40
:1006F300FFEE33FEED33FDCC33CCC833C810D70740
:100703009BEC9AE899400AED9BFDEC9AFCE899F87A
:0E0713000FD5F0DAE4CDFBE4CCFAE4C8F9220D
:00000001FF
