:03000000020222D7
:0C022200787FE4F6D8FD75813102026996
:100407007F98B0C6D9E9F5FCFFFCF5E9D9C6B098E5
:100417007F664E38251509020002091525384E66F4
:1004270000102030405060708090A0B0C0D0E0F045
:10043700FFF0E0D0C0B0A090807060504030201036
:1004470000081018202830384048505860687078E5
:1004570080889098A0A8B0B8C0C8D0D8E0E8F0F8D5
:1005150001290A0125000127000126010128010101
:0505250021000122008D
:10069600D2AF7F017E001202AE752304752407AF28
:0906A6002912039A12032780FBBC
:0204C2008F2C7D
:1004C400E52C640D7027E521700A7521017523045C
:1004D40075242722E521B4010A75210275230475C8
:1004E400244722E4F52175230475240722E52CB45E
:1004F400260BE529C3941950170529800EE52CB461
:10050400280EE529D3940240071529AF2912039A2E
:0105140022C4
:10067A008F311206D57F901205E94002800A7F4029
:0C068A001205E9AF311205E912000E2242
:10039A00EF75F020A4AEF0FBAA06E4F9F8FF7E1090
:1003AA007D0EFC1205648F308E2F8D2E8C2DC3E4AA
:1003BA009530F530E4952FF52F7401952EF52EE43E
:1003CA00952DF52DE5302406F530E4352FF52FE48B
:1003DA00352EF52EE4352DF52DAF30AE2FAD2EFC92
:1003EA00780812013B8F2685302853890F438910DC
:0C03FA0085268D85288BD2ABD2BBD28E1D
:0104060022D3
:1002AE00752D00752C10752B0E752A00E4FCFDAB18
:1002BE002DAA2CA92BA82A12001EE47BE87A03F99A
:1002CE00F81200A98F2D8E2C8D2B8C2AC3E4952D20
:1002DE00F52DE4952CF52C7401952BF52BE4952A30
:1002EE00F52AE52D2405F52DE4352CF52CE4352BDA
:1002FE00F52BE4352AF52AAF2DAE2CAD2BFC780864
:10030E0012013B8F25852D275389F04389018525C1
:08031E008C85278AD2A9D28C3C
:0103260022B4
:03000B000205A843
:1005A800C0E0C0F0C083C082C0D075D000C000C019
:1005B80001C002C003C004C005C006C00785258C61
:1005C80085278A12014ED007D006D005D004D00363
:1005D800D002D001D000D0D0D082D083D0F0D0E0EB
:0105E80032E0
:03001B0002046775
:10046700C0E0C0F0C083C082C0D075D000C000C05B
:0D04770001C002C003C004C005C006C007DC
:1004840085268D85288BE5242522F582E43523F500
:1004940083E493FF12067A0522E522C394204003E5
:0304A400752200BE
:1004A700D007D006D005D004D003D002D001D000A9
:0B04B700D0D0D082D083D0F0D0E03253
:0B06AF00C2B67F051206BAD2B77F0565
:0B06BA000000000000000000DFF6223E
:0F06D500D2B61206B6C2B67F051206BAC2B72257
:0C000E00C2B71206AFD2B67F050206BAD8
:0205E900AE075B
:1005EB007D80ED60145E7004C2B68002D2B6120636
:1005FB00B1C2B7EDC313FD80E9D2B67F051206BABF
:10060B00D2B7A2B692007F051206BAC2B7A200B348
:01061B0022BC
:10061C00D2B67D80ED601F7F051206BAD2B720B628
:10062C0005F452068003ED42067F051206BAC2B7E6
:0F063C00EDC313FD80DED2B61206B1C2B7AF0612
:01064B00228C
:10064C00D2B67D80ED601F7F051206BAD2B720B6F8
:10065C0005F452068003ED42067F051206BAC2B7B6
:0D066C00EDC313FD80DE1206AFC2B7AF066E
:01067900225E
:1006C500313233263435362537383928301B0D2756
:10052A009010010101010101010101010101010113
:10053A000101900001010101010101010101010113
:10054A00010101010108001009FFFFFFFFFFFFFF82
:09055A00FFFFFFFFFFFFFFFFFFA1
:10032700E4F52AE4F52BE52A25E025E02410252B22
:10033700F8E2FFE52A25E025E02400252BF8E2FE78
:100347006F603DEE6020E52A25E025E024C5F582B3
:10035700E43406F583E582252BF582E43583F583BE
:10036700E493FF1204C2E52A25E025E02410252B9B
:10037700F8E2FFE52A25E025E02400252BF8EFF237
:10038700052BE52BC39404409D052AE52AC3940455
:02039700409193
:010399002241
:10014E00E50825E025E02409F8E625E0FFA2A4E471
:10015E00334FFFE50825E025E02409F8A607E5085A
:10016E0025E025E0240AF8E625E0FFA2A5E4334FBA
:10017E00FFE50825E025E0240AF8A607E50825E0B6
:10018E0025E0240BF8E625E0FFA2A6E4334FFFE5B9
:10019E000825E025E0240BF8A607E50825E025E074
:1001AE00240CF8E625E0FFA2A7E4334FFFE508256F
:1001BE00E025E0240CF8A607E4FFE50825E025E09D
:1001CE0024092FF8E6540FFE700EE50825E025E011
:1001DE0024102FF8E4F28010BE0F0DE50825E0255F
:1001EE00E024102FF87401F20FBF04CE0508530857
:1001FE0003E50814600F14601114601324037013C8
:10020E00D2A0C2A322D2A3C2A222D2A2C2A122D221
:03021E00A1C2A0DA
:0102210022BA
:10022E00020696E493A3F8E493A34003F68001F24A
:10023E0008DFF48029E493A3F85407240CC8C333D1
:10024E00C4540F4420C8834004F456800146F6DFA0
:10025E00E4800B0102040810204080900515E47E16
:10026E00019360BCA3FF543F30E509541FFEE49395
:10027E00A360010ECF54C025E060A840B8E493A35C
:10028E00FAE493A3F8E493A3C8C582C8CAC583CA87
:10029E00F0A3C8C582C8CAC583CADFE9DEE780BE3F
:010563000097
:10001E00E88FF0A4CC8BF0A42CFCE98EF0A42CFC81
:10002E008AF0EDA42CFCEA8EF0A4CDA8F08BF0A4FF
:10003E002DCC3825F0FDE98FF0A42CCD35F0FCEB5E
:10004E008EF0A4FEA9F0EB8FF0A4CFC5F02ECD3923
:0F005E00FEE43CFCEAA42DCE35F0FDE43CFC2290
:10006D0075F008758200EF2FFFEE33FECD33CDCC4A
:10007D0033CCC58233C5829BED9AEC99E5829840CD
:10008D000CF582EE9BFEED9AFDEC99FC0FD5F0D6AA
:10009D00E4CEFBE4CDFAE4CCF9A88222B800C1B9D4
:1000AD000059BA002DEC8BF084CFCECDFCE5F0CB12
:1000BD00F97818EF2FFFEE33FEED33FDEC33FCEB4B
:1000CD0033FB10D703994004EB99FB0FD8E5E4F906
:1000DD00FA227818EF2FFFEE33FEED33FDEC33FCF3
:1000ED00C933C910D7059BE99A4007EC9BFCE99AE7
:1000FD00F90FD8E0E4C9FAE4CCFB2275F010EF2F2C
:10010D00FFEE33FEED33FDCC33CCC833C810D7072B
:10011D009BEC9AE899400AED9BFDEC9AFCE899F866
:0E012D000FD5F0DAE4CDFBE4CCFAE4C8F922F9
:10056400C2D5E830E70FB2D5E4C39BFBE49AFAE4C2
:1005740099F9E498F8EC30E717B2D512059A12000D
:10058400A9E4C39BFBE49AFAE499F9E498F880039C
:100594001200A930D50DE4C39FFFE49EFEE49DFD47
:0405A400E49CFC22B5
:10013B00E8600FECC313FCED13FDEE13FEEF13FFA2
:03014B00D8F122C6
:00000001FF
