:101030002D2D3A2D2D3A2D2D20204B3A3078303061
:101040000045323A2D20543A2D2D2041443A2D2D81
:021050002D0071
:0E124A00D294858058A2909200A29192012227
:0E125800A2009290A2019291855880C2942229
:1011E5007580FFC290D291D295AF80C295EF20E76E
:0111F500F603
:0111F60022D6
:10002600AE0712124A1211E5C290C2918E80D29585
:05003600C29502125802
:1011A900AE0712124A1211E5D290C2918E80D295E1
:0511B900C2950212586E
:05000E007F0102002645
:1011F700ED7004AC078004EF2440FCEC4480FF0250
:021207000026BF
:100F6E008B168A1789181211F7AB16AA17A9181221
:100F7E00003E60130518E5187002051714F91200EB
:080F8E003EFF1211A980E222CE
:100EF1007F381200267F0C1200267F061200261270
:100F0100000E7BFF7A107930E4FDFF120F6E7BFF3C
:0A0F11007A1079410DE4FF020F6E23
:1002BD00C0F9A4B0999282F880908883C6A1868EE9
:1002CD000000000800000000000000180000000001
:1002DD0000000018100000000000001818000000B9
:1002ED00000000181C0000000000001C1C00000095
:1002FD000000041C1C00000000000C1C1C00000071
:10030D0000001C1C1C00000000003C1C1C00000018
:10031D0000003C3C1C00000000003C3C3C00000088
:10032D0000003C3C3C20000000003C3C3C30000008
:10033D0000003C3C3C38000000003C3C3C3C0000D4
:10034D0000003C3C3C3E000000003C3C3E3E0000BA
:10035D0000003C3E3E3E000000003E3E3E3E0000A2
:10036D0000023E3E3E3E000000063E3E3E3E000088
:10037D00000E3E3E3E3E0000001E3E3E3E3E000054
:10038D00003E3E3E3E3E0000007E3E3E3E3E0000B4
:10039D00007E7E3E3E3E0000007E7E7E3E3E0000A4
:1003AD00007E7E7E7E3E0000007E7E7E7E7E000094
:1003BD00007E7E7E7E7E4000007E7E7E7E7E6000A4
:1003CD00007E7E7E7E7E7000007E7E7E7E7E78004C
:1003DD00007E7E7E7E7E7C00007E7E7E7E7E7E002A
:1003ED00007E7E7E7E7E7F00007E7E7E7E7F7F0015
:1003FD00007E7E7E7F7F7F00007E7E7F7F7F7F0001
:10040D00007E7F7F7F7F7F00007F7F7F7F7F7F00EC
:10041D00017F7F7F7F7F7F00037F7F7F7F7F7F00D7
:10042D00077F7F7F7F7F7F000F7F7F7F7F7F7F00B5
:10043D001F7F7F7F7F7F7F003F7F7F7F7F7F7F005D
:10044D007F7F7F7F7F7F7F00FF7F7F7F7F7F7F002D
:10045D00FFFF7F7F7F7F7F00FFFFFF7F7F7F7F001D
:10046D00FFFFFFFF7F7F7F00FFFFFFFFFF7F7F000D
:10047D00FFFFFFFFFFFF7F00FFFFFFFFFFFFFF00FD
:10048D00FFFFFFFFFFFFFF80FFFFFFFFFFFFFFC02D
:10049D00FFFFFFFFFFFFFFE0FFFFFFFFFFFFFFF08D
:1004AD00FFFFFFFFFFFFFFF8FFFFFFFFFFFFFFFC59
:1004BD00FFFFFFFFFFFFFFFEFFFFFFFFFFFFFFFF40
:1006F5000239000002270000013800C1060122016D
:0C0705000123000124050125000126004D
:10100D007580FFC29475391C753ACC853927853AA0
:10101D002875D98875DA498528EAE527F5FAD2BF0A
:03102D00D2DE22EE
:1010B700E522F4F53720060CE52225E0F522B48079
:0F10C7000ED20622E522C313F522B40102C2069F
:0110D60022F7
:100C3E00E4FFE523FD3395E0FC74BD2DF5827402CF
:100C4E003CF583E493FE74312FF8A6060FBF06E23F
:100C5E000523C3E5236480948A4003E4F5237431AD
:100C6E002524F8E6547FF61524C3E5246480948089
:050C7E00500375240580
:010C8300224E
:10085F00E525C39440502DE4FF75F008E525A42449
:10086F00CDF582E5F03402F583E5822FF582E4358C
:10087F0083F583E493F4FE74292FF8A6060FBF08BF
:10088F00D8052522E525C39480502CE4FF75F00888
:10089F00E525A424CDF582E5F03400F583E5822F1C
:1008AF00F582E43583F583E493FE74292FF8A606C9
:0A08BF000FBF08D9052522E4F52536
:0108C900220C
:04128600753878221D
:03003B00020A5561
:090A5500C0E0C0D075D000C00063
:100A5E00C2D8E53A2528F528E5393527F527852822
:100A6E00EAE527F5FA2094217580FFE59054F045CC
:100A7E0026F59074292526F8E6F580E526C3940E12
:100A8E00500405268003752600E5386006B29615DB
:050A9E00388002D29631
:070AA300D000D0D0D0E032FA
:10122B00313233263435362537383928301B0D27E4
:10071100901001010101010101010101010101012A
:10072100010190000101010101010101010101012A
:1007310001010101013B00103CFFFFFFFFFFFFFF33
:09074100FFFFFFFFFFFFFFFFFFB8
:1007EC00E4F50AE4F50BE50A25E025E02410250BD9
:1007FC00F8E2FFE50A25E025E02400250BF8E2FEEF
:10080C006F603DEE6020E50A25E025E0242BF582A3
:10081C00E43412F583E582250BF582E43583F58308
:10082C00E493FF120AAAE50A25E025E02410250B23
:10083C00F8E2FFE50A25E025E02400250BF8EFF2AD
:10084C00050BE50BC39404409D050AE50AC394040B
:02085C004091C9
:01085E002277
:1004CD00E53B25E025E0243CF8E625E0FFA2A4E489
:1004DD00334FFFE53B25E025E0243CF8A607E53B3F
:1004ED0025E025E0243DF8E625E0FFA2A5E4334F05
:1004FD00FFE53B25E025E0243DF8A607E53B25E09B
:10050D0025E0243EF8E625E0FFA2A6E4334FFFE503
:10051D003B25E025E0243EF8A607E53B25E025E058
:10052D00243FF8E625E0FFA2A7E4334FFFE53B2586
:10053D00E025E0243FF8A607E4FFE53B25E025E0B4
:10054D00243C2FF8E6540FFE700EE53B25E025E028
:10055D0024102FF8E4F28010BE0F0DE53B25E025A9
:10056D00E024102FF87401F20FBF04CE053B533B6E
:10057D0003E53B14600F1460111460132403701312
:10058D00D2A0C2A322D2A3C2A222D2A2C2A122D29F
:03059D00A1C2A058
:0105A0002238
:0800030020140101123000037A
:10114B007E01EE60135F6004D2B48002C2B4D2B5EC
:0A115B00C2B5EE25E0FE80EAD2B432
:011165002267
:10116600E4FF7E01EE600F30B4024207D2B5C2B58D
:06117600EE25E0FE80EE14
:01117C002250
:1011D200D297EF25E04480FF12114BAF0512114B5D
:0311E200C297228F
:10120900D297EF25E04481FF12114B121166C29764
:0112190022B2
:060F96008B128A1389147E
:100F9C00D2977FBE12114BE4FDAB12AA13A9148D8C
:100FAC0082758300120057FF12114B0DBD08EAC267
:010FBC00979D
:010FBD002211
:060FBE008B1D8A1E891F35
:100FC400D2977FBF12114BE4FD121166AB1DAA1E0E
:100FD400A91F8D82758300EF1200960DBD08EAC229
:010FE4009775
:010FE50022E9
:0609FE008B128A1389141C
:100A04007B007A007915120FBEE4251BFFE4342025
:100A1400AB12AA13A9148FF0120119AB12AA13A9CD
:100A240014900002E519120096900003E5181200D4
:100A340096900004E517120096900005E516120042
:100A440096900006E515120096900007E51A02003C
:010A5400960B
:100CC800E4F5111200EEF510900007120057F50F29
:100CD800900002120057F50E900003120057F50D10
:100CE800900004120057F50C900005120057F50B00
:100CF800900006120057F50A7B007A00790A020F65
:010D08009654
:1010D700C297C2B5E4FF121209EF30E710E4FD7FB3
:0D10E700071211D27BFF7A007903120CC8AA
:0110F40022D9
:0B1266000000000000000000DFF62286
:10109600C2AFC2B27FFA1212667FFA121266D2B2DB
:1010A6007F3C121266A2B2920530B2FDD2AFA20503
:0110B6002217
:020F4500AE07F5
:100F4700C2AF7D01ED601DC2B27F021212665E70F4
:100F570004C2B28002D2B27F3C121266D2B2ED2531
:060F6700E0FD80E0D2AFC6
:010F6D002261
:100DDC00C2AF7D01ED6024C2B27F02121266D2B2A4
:100DEC007F0212126620B205F452068003ED420611
:0F0DFC007F3C121266ED25E0FD80D9D2AFAF0625
:010E0B0022C4
:10117D00121096920420040A7FCC120F457F441260
:05118D000F45A204B3B0
:01119200223A
:100E6B0012109692042004227FCC120F457FBE12E3
:100E7B000F45120DDCAC07120DDCEFFEAD047C0050
:0D0E8B00E42DFFEC3E8FF0120119A204B31C
:010E98002237
:02074A00C107E5
:0B127100300707C207AF53120AAA2281
:10121A00D2B353890F438910C28EC2ABD28AD2AAE3
:01122A0022A1
:10105200E4F58DF58BD28E30B307E58DC394404015
:10106200F6C28EAF8DEFFEAD8B7C00E42DFFEC3E21
:02107200FE225C
:10107400E4F58DF58BD28E20B307E58DC394404003
:10108400F6C28EAF8DEFFEAD8B7C00E42DFFEC3EFF
:02109400FE223A
:030013000205A142
:1005A100C0E0C0D075D000C000C001C002C003C00F
:0705B10004C005C006C007ED
:1005B800121074C3EF9499EE941E4009D3EF94334C
:1005C800EE94224005C28B020654121052C3EF94D7
:1005D80066EE940E4009D3EF9400EE94124004C2E4
:1005E8008B8069E4FBE4FA121074C3EF9439EE943B
:1005F800014009D3EF94CEEE94024004C28B804CA4
:10060800121052D3EF9439EE9401400EEF94CEEECF
:1006180094025006E9C313F9801ED3EF9441EE9477
:10062800054011EF94D7EE94065009E9C313F94336
:1006380001808004C28B80140ABA08AB74512BF86D
:0C064800A6010BEB6404709DD207C28B6E
:10065400D007D006D005D004D003D002D001D000FA
:05066400D0D0D0E0320F
:0C0016004E0059006B65793A20307800EC
:10074C00C108014F00015000882000AAAAAAAAAA39
:09075C00AAAA024C7FFF014E0025
:1009350075080A750914D2AF7F017E001208CA7FB7
:10094500807E251210F512100D12121A120EF112D8
:10095500117DE4FF12112F1212861207EC121113EA
:100965001212713008F4C208E509D39400400BD582
:1009750009E81210D712077380E01210B712085F4A
:10098500120BF60508E508C3940A40CEE4F50812F3
:0A0995000C3E12099F120D0980C0EC
:10077300750A33750BAA7B007A00790A751002E4B7
:10078300FD120BA7E4F50AF50BFB7A00790A751045
:1007930002FD120B53E50AB43306E50B64AA6002AB
:1007A3008031750A55750BCC7B007A00790A751078
:1007B300027D7F120BA7E4F50AF50BFB7A00790A99
:1007C3007510027D7F120B53E50AB45506E50B64E1
:1007D300CC60087BFF7A00791680067BFF7A00796C
:0807E300187D017F03120F6E67
:0107EB0022EB
:100D7600EBC4540FFED39409EE50062430F51280CE
:100D8600042437F512EB540FFED39409EE500624D3
:100D960030F51380042437F513E4F514FB7A007953
:040DA60012020F6EB8
:020AAA008F0CAF
:100AAC00121286AB0CE4FD7F0E120D76E50CC454CD
:100ABC000FF50DD394095004743080027437250D52
:100ACC00F50DE50C540FF50ED394095004743080D9
:100ADC00027437250EF50E750F0D75100A7BFF7A13
:100AEC0000791A7D07120FE67B007A00790D7D04E0
:030AFC00020FE600
:101193008B0A8A0B890C8D0D121286AB0AAA0BA936
:0611A3000CAD0D020FE689
:100BF6007B007A00790A1209FE7824E2650E600D00
:100C0600AB0EE4FDFF120D767824E50EF27825E2B0
:100C1600650F600EAB0FE4FD7F03120D767825E5B8
:100C26000FF27826E26510600EAB10E4FD7F061227
:070C36000D767826E510F2AF
:010C3D002294
:10099F007B007A00790A120E6B12117DE50BAE0AFD
:1009AF007804CEA2E713CE13D8F8F50B8E0A654D57
:1009BF007004E54C650A6036AF0B7C007D0A1200AF
:1009CF00B8EF2430785AF2AE0AAF0B7C007D0A12D2
:1009DF0000B8ED2430785BF2E408F27BFE7A007900
:0E09EF005A7D017F07120F6E850A4C850B4D55
:0109FD0022D7
:100D0900E4FF120E0CEF75F064842430F50AEF75D8
:100D1900F06484E5F075F00A842430F50BEF75F082
:100D29000A84E5F02430F50CE4F50DFB7A00790A24
:070D39007D017F0D020F6E2A
:1008CA00E4FCFDFB7A10790EF8120138E47BE87A31
:1008DA0003F9F8120C848F0D8E0C8D0B8C0AC3E46D
:1008EA00950DF50DE4950CF50C7401950BF50BE4DB
:1008FA00950AF50AE50D2405F50DE4350CF50CE429
:10090A00350BF50BE4350AF50AAF0DAE0CAD0BFC51
:10091A0078081201878F4F850D505389F04389015A
:0A092A00854F8C85508AD2A9D28C2B
:0109340022A0
:03000B00020AFFE7
:100AFF00C0E0C0F0C083C082C0D075D000C000C0BD
:0D0B0F0001C002C003C004C005C006C0073D
:100B1C00854F8C85508A1204CD7F01120E99054E9B
:0C0B2C00E54EC394644005754E00D208ED
:100B3800D007D006D005D004D003D002D001D00011
:0B0B4800D0D0D082D083D0F0D0E032BB
:0D076500C102C103015700015500015600FB
:1010F500759850AB07AA06E4F9F8FF7E467D05FC16
:0E110500120C84EFF404F59C438E15D2AC223C
:100FE6008B118A128913AF051DEF601AC203AB116C
:100FF6000513E513AA127002051214F912003EF544
:07100600992003E280FB22A8
:060D40008B0A8A0B890CEE
:100D4600EDD395574002AD57E4FFEFC39D501B749A
:100D5600282FF8E2FEAB0A050CE50CAA0B7002057B
:0F0D66000B14F9EE1200840F80E0E4F557AF058F
:010D7500225B
:100E9900E557D394004021E55565576007855755B7
:100EA900E4F55622E556C3941E5010EF2556F55623
:0B0EB900C3941E4006D20222E4F5554F
:010EC400220B
:10111300300218C2027BFE7A00795A7D28120D40F4
:0B112300AD077BFE7A00795A12119391
:01112E00229E
:03002300020DAA21
:100DAA00C0E0C0D075D000C000C007309814C29807
:100DBA00E557C39432500BAF57055774282FF8E5FF
:100DCA0099F2309904C299D203D007D000D0D0D07A
:020DDA00E03205
:100B53008B0C8A0D890E8D0F12123B7FA0120E3C57
:100B6300400512127C80F1AF0F120E3C12123B7F34
:100B7300A1120E3CE510D394014019120F1BAB0CCC
:100B8300050EE50EAA0D7002050D14F9EF1200848F
:100B9300151080E0120EC5AB0CAA0DA90EEF1200C2
:040BA3008402127C3A
:100BA7008B0C8A0D890E8D0FE510D39400403F12F0
:100BB700123B7FA0120E3C400512127C80F1AF0F52
:100BC700120E3CE510D39400401FAB0C050EE50E4A
:100BD700AA0D7002050D14F912003EFF120E3C1506
:0F0BE70010050FE50F540770DA12127C80BA2246
:0711BE00C2B61211C5D2B741
:0C11C5007F050000000000000000DFF6C5
:0111D10022FB
:0F123B00D2B6D2B71211C5C2B61211C5C2B722B0
:0A127C00C2B71211BED2B60211C5AE
:020E3C00AE07FF
:100E3E007D80ED60145E7004C2B68002D2B61211CF
:100E4E00C0C2B7EDC313FD80E9D2B61211C5D2B739
:0C0E5E00A2B692041211C5C2B7A204B3E0
:010E6A002265
:100EC500D2B67D80ED601B1211C5D2B720B605F4F0
:100ED50052068003ED42061211C5C2B7EDC313FDDC
:0B0EE50080E2D2B61211C0C2B7AF0607
:010EF00022DF
:100F1B00D2B67D80ED601B1211C5D2B720B605F499
:100F2B0052068003ED42061211C5C2B7EDC313FD85
:090F3B0080E21211BEC2B7AF063C
:010F4400228A
:020E0C008F0E47
:100E0E0012123B7F90120E3C400612127C7F002283
:100E1E00E50E4440FF120E3C12123B7F91120E3C27
:0D0E2E00120F1B120EC58F0F12127CAF0F9A
:010E3B002294
:10112F008F0A12123B7F90120E3C4002800A7F40C2
:0C113F00120E3CAF0A120E3C12127C2271
:030000000206698C
:0C06690078FFE4F6D8FD7581580206B059
:10067500020935E493A3F8E493A34003F68001F25D
:1006850008DFF48029E493A3F85407240CC8C33386
:10069500C4540F4420C8834004F456800146F6DF55
:1006A500E4800B01020408102040809006F5E47EEA
:1006B500019360BCA3FF543F30E509541FFEE4934A
:1006C500A360010ECF54C025E060A840B8E493A311
:1006D500FAE493A3F8E493A3C8C582C8CAC583CA3C
:1006E500F0A3C8C582C8CAC583CADFE9DEE780BEF4
:010772000086
:10003E00BB010689828A83E0225002E722BBFE02C0
:09004E00E32289828A83E49322F3
:10005700BB010CE58229F582E5833AF583E022505E
:1000670006E92582F8E622BBFE06E92582F8E222A8
:0D007700E58229F582E5833AF583E49322C2
:10008400BB010689828A83F0225002F722BBFE015B
:02009400F32255
:10009600F8BB010DE58229F582E5833AF583E8F0A0
:1000A600225006E92582C8F622BBFE05E92582C84C
:0200B600F22234
:1000B800C2D5EC30E709B2D5E4C39DFDE49CFCEE63
:1000C80030E715B2D5E4C39FFFE49EFE12019AC340
:1000D800E49DFDE49CFC800312019A30D507C3E43B
:0600E8009FFFE49EFE22D2
:1000EE00BB010A89828A83E0F5F0A3E022500687DD
:1000FE00F009E71922BBFE07E3F5F009E31922899F
:0B010E00828A83E493F5F074019322D1
:10011900BB010A89828A83F0E5F0A3F0225006F731
:0F01290009A7F01922BBFE06F3E5F009F319222E
:10013800E88FF0A4CC8BF0A42CFCE98EF0A42CFC66
:100148008AF0EDA42CFCEA8EF0A4CDA8F08BF0A4E4
:100158002DCC3825F0FDE98FF0A42CCD35F0FCEB43
:100168008EF0A4FEA9F0EB8FF0A4CFC5F02ECD3908
:0F017800FEE43CFCEAA42DCE35F0FDE43CFC2275
:100C8400C2D5E830E70FB2D5E4C39BFBE49AFAE49B
:100C940099F9E498F8EC30E717B2D5120CBA1202BD
:100CA4002BE4C39BFBE49AFAE499F9E498F88003F3
:100CB40012022B30D50DE4C39FFFE49EFEE49DFD9C
:040CC400E49CFC228E
:10018700E8600FECC313FCED13FDEE13FEEF13FF56
:03019700D8F1227A
:10019A00BC000BBE0029EF8DF084FFADF022E4CC49
:1001AA00F875F008EF2FFFEE33FEEC33FCEE9DEC12
:1001BA00984005FCEE9DFE0FD5F0E9E4CEFD22ED58
:1001CA00F8F5F0EE8420D21CFEADF075F008EF2FA2
:1001DA00FFED33FD4007985006D5F0F222C398FD93
:0501EA000FD5F0EA2230
:1001EF0075F008758200EF2FFFEE33FECD33CDCCC7
:1001FF0033CCC58233C5829BED9AEC99E58298404A
:10020F000CF582EE9BFEED9AFDEC99FC0FD5F0D626
:10021F00E4CEFBE4CDFAE4CCF9A88222B800C1B950
:10022F000059BA002DEC8BF084CFCECDFCE5F0CB8E
:10023F00F97818EF2FFFEE33FEED33FDEC33FCEBC7
:10024F0033FB10D703994004EB99FB0FD8E5E4F982
:10025F00FA227818EF2FFFEE33FEED33FDEC33FC6F
:10026F00C933C910D7059BE99A4007EC9BFCE99A63
:10027F00F90FD8E0E4C9FAE4CCFB2275F010EF2FA8
:10028F00FFEE33FEED33FDCC33CCC833C810D707A8
:10029F009BEC9AE899400AED9BFDEC9AFCE899F8E3
:0E02AF000FD5F0DAE4CDFBE4CCFAE4C8F92276
:00000001FF
