:03000000020150AA
:0C015000787FE4F6D8FD75810702013BC2
:10013B007F807E251201153098FDC2980599309964
:05014B00FDC29980F2E5
:1001150075985053890F438920AB07AA06E4F9F86F
:100125007F807E70FDFC1200D1EFF404F58D858D86
:060135008BC2ABD28E224A
:1000D100C2D5E830E70FB2D5E4C39BFBE49AFAE45A
:1000E10099F9E498F8EC30E717B2D512010712003C
:1000F1003FE4C39BFBE49AFAE499F9E498F880039E
:1001010012003F30D50DE4C39FFFE49EFEE49DFD48
:04011100E49CFC224C
:1000030075F008758200EF2FFFEE33FECD33CDCCB4
:1000130033CCC58233C5829BED9AEC99E582984037
:100023000CF582EE9BFEED9AFDEC99FC0FD5F0D614
:10003300E4CEFBE4CDFAE4CCF9A88222B800C1B93E
:100043000059BA002DEC8BF084CFCECDFCE5F0CB7C
:10005300F97818EF2FFFEE33FEED33FDEC33FCEBB5
:1000630033FB10D703994004EB99FB0FD8E5E4F970
:10007300FA227818EF2FFFEE33FEED33FDEC33FC5D
:10008300C933C910D7059BE99A4007EC9BFCE99A51
:10009300F90FD8E0E4C9FAE4CCFB2275F010EF2F96
:1000A300FFEE33FEED33FDCC33CCC833C810D70796
:1000B3009BEC9AE899400AED9BFDEC9AFCE899F8D1
:0E00C3000FD5F0DAE4CDFBE4CCFAE4C8F92264
:00000001FF
