:0300000002014EAC
:0C014E00787FE4F6D8FD75812002019551
:0D000E0005121E29333C444B51565A5D5FCC
:1003BE00010D00010F00011100011200010E0001DC
:0D03CE001000040900000000C1000108003B
:1003A000D2AFC294D293D292D291C2907D0A7F648E
:0E03B0007E001202537F327E001201DA80FEC0
:1001DA0075160075151075140E751300E4FCFDAB49
:1001EA0016AA15A914A81312001EE47BE87A03F9CB
:1001FA00F81200A98F168E158D148C13C3E4951668
:10020A00F516E49515F51574019514F514E495138E
:10021A00F513E516240CF516E43515F515E4351431
:10022A00F514E43513F513AF16AE15AD14FC7808C2
:10023A0012013B8F0E85161053890F438910850EC4
:08024A008D85108BD2ABD28E22
:010252002289
:020253008D1309
:10025500AB07AA06E4F9F8FF7E107D0EFC12031D1C
:100265008F0C8E0B8D0A8C09AF13E4FCFDFEAB0CD5
:10027500AA0BA90AA80912001EE47B64FAF9F81270
:1002850000A9AD07AC06C3E50C9DFFE50B9CAB07CC
:10029500FAC3740C9DFDE49CFCC3740C9BFBE49AAF
:1002A5008C0D8D0FF5118B125389F0438901850D46
:0A02B5008C850F8AD2A9D28CD2806A
:0102BF00221C
:10036100E4FCFDFEAB0CAA0BA90AA80912001EE4CD
:100371007B64FAF9F81200A9AD07AC06C3E50C9D40
:10038100FFE50B9CAB07FAC3740C9DFDE49CFCC319
:0E039100740C9BFBE49A8C0D8D0FF5118B12F2
:01039F00223B
:03000B000203DC11
:1003DC0030800985118C85128AC28032850D8C85FE
:0503EC000F8AD28032EF
:03001B000202C01E
:1002C000C0E0C0F0C083C082C0D075D000C000C004
:0D02D00001C002C003C004C005C006C00785
:1002DD00850E8D85108BE50890000E93FF1203613E
:1002ED0020000D0508E508C3940C4009D2008005D7
:0502FD00D50802C2005B
:10030200D007D006D005D004D003D002D001D0004F
:0B031200D0D0D082D083D0F0D0E032F9
:10015A000203A0E493A3F8E493A34003F68001F218
:10016A0008DFF48029E493A3F85407240CC8C333A6
:10017A00C4540F4420C8834004F456800146F6DF75
:10018A00E4800B01020408102040809003BEE47E44
:10019A00019360BCA3FF543F30E509541FFEE4936A
:1001AA00A360010ECF54C025E060A840B8E493A331
:1001BA00FAE493A3F8E493A3C8C582C8CAC583CA5C
:1001CA00F0A3C8C582C8CAC583CADFE9DEE780BE14
:0103DB000021
:10001E00E88FF0A4CC8BF0A42CFCE98EF0A42CFC81
:10002E008AF0EDA42CFCEA8EF0A4CDA8F08BF0A4FF
:10003E002DCC3825F0FDE98FF0A42CCD35F0FCEB5E
:10004E008EF0A4FEA9F0EB8FF0A4CFC5F02ECD3923
:0F005E00FEE43CFCEAA42DCE35F0FDE43CFC2290
:10006D0075F008758200EF2FFFEE33FECD33CDCC4A
:10007D0033CCC58233C5829BED9AEC99E5829840CD
:10008D000CF582EE9BFEED9AFDEC99FC0FD5F0D6AA
:10009D00E4CEFBE4CDFAE4CCF9A88222B800C1B9D4
:1000AD000059BA002DEC8BF084CFCECDFCE5F0CB12
:1000BD00F97818EF2FFFEE33FEED33FDEC33FCEB4B
:1000CD0033FB10D703994004EB99FB0FD8E5E4F906
:1000DD00FA227818EF2FFFEE33FEED33FDEC33FCF3
:1000ED00C933C910D7059BE99A4007EC9BFCE99AE7
:1000FD00F90FD8E0E4C9FAE4CCFB2275F010EF2F2C
:10010D00FFEE33FEED33FDCC33CCC833C810D7072B
:10011D009BEC9AE899400AED9BFDEC9AFCE899F866
:0E012D000FD5F0DAE4CDFBE4CCFAE4C8F922F9
:10031D00C2D5E830E70FB2D5E4C39BFBE49AFAE40B
:10032D0099F9E498F8EC30E717B2D512035312009F
:10033D00A9E4C39BFBE49AFAE499F9E498F88003E5
:10034D001200A930D50DE4C39FFFE49EFEE49DFD90
:04035D00E49CFC22FE
:10013B00E8600FECC313FCED13FDEE13FEEF13FFA2
:03014B00D8F122C6
:00000001FF
