:030000000202F900
:0C02F900787FE4F6D8FD7581400200FC1F
:1000FC001202907B007A007921753E057D901200EA
:10010C00A8753D00753E00753F217540057B007A52
:10011C000079261200037B007A007926E4FDFF1299
:10012C000253E4FF74212FF8E6042FF60FBF05F4F9
:10013C007B007A007921753E057D9012014C80FE82
:060003008B3A8A3B893CA8
:10000900AF401540EF70030200A7AB3DAA3EA93FE0
:10001900120228C4540FFFD394095012EF2430FE62
:10002900AB3A053CE53CAA3B7014053B8010EF2434
:1000390037FEAB3A053CE53CAA3B7002053B14F997
:10004900EE120241AB3DAA3EA93F120228540FFF0E
:10005900D394095012EF2430FFAB3A053CE53CAA92
:100069003B7014053B8010EF2437FFAB3A053CE5A4
:100079003CAA3B7002053B14F9EF120241AB3A0569
:100089003CE53CAA3B7002053B14F974201202417D
:0E0099007401253FF53FE4353EF53E020009B7
:0100A7002236
:1000A8008B3A8A3B893C8D3D1202C87FA012018C95
:1000B800400512027B80F1AF3D12018C1202C87F0D
:1000C800A112018CE53ED3940140191201F5AB3A17
:1000D800053CE53CAA3B7002053B14F9EF120241CE
:1000E800153E80E01201C2AB3AAA3BA93CEF1202CE
:0400F8004102027B44
:10014C008B3A8A3B893C8D3DAF3E153EEF603012B9
:10015C0002C87FA012018C400512027B80F1AF3DDA
:10016C00053D12018CAB3A053CE53CAA3B700205FF
:10017C003B14F9120228FF12018C12027B80C92257
:1002A4007580FFC290D291D295AF80C295EF20E7BE
:0102B400F653
:0102B5002226
:1002D900AE071202A4C290C2918E80D295C2952215
:1002E900AE071202A4D290C2918E80D295C29522F5
:1002B600ED7004AC078004EF2440FCEC4480FF02A0
:0202C60002D95B
:100253008B3A8A3B893C1202B6AB3AAA3BA93C12C1
:1002630002286013053CE53C7002053B14F91202B9
:0802730028FF1202E980E222DB
:100290007F381202D97F0C1202D97F061202D97F51
:0402A000010202D97C
:1002C800D2B6D2B700000000C2B600000000C2B724
:0102D8002203
:10027B00C2B7C2B600000000D2B700000000D2B671
:05028B0000000000224C
:10018C007E80EE601B5F7004C2B68002D2B60000A7
:10019C000000D2B700000000C2B7EEC313FE80E22D
:1001AC00D2B600000000D2B7A2B692000000000048
:0501BC00C2B7A200B370
:0101C100221B
:1001C200D2B67E80EE601D00000000D2B720B605D8
:1001D200F452078003EE420700000000C2B7EEC3EC
:1001E20013FE80E0D2B600000000D2B7000000008B
:0201F200C2B792
:0101F40022E8
:1001F500D2B67E80EE601D00000000D2B720B605A5
:10020500F452078003EE420700000000C2B7EEC3B8
:1002150013FE80E0C2B600000000D2B70000000067
:02022500C2B75E
:0102270022B4
:10022800BB010689828A83E0225002E722BBFE02D4
:09023800E32289828A83E4932207
:10024100BB010689828A83F0225002F722BBFE019C
:02025100F32296
:00000001FF
