:030000000201E01A
:0C01E000787FE4F6D8FD7581200202272C
:1004F800D2B6D2B700000000C2B600000000C2B7F2
:0105080022D0
:1004AB00C2B7C2B600000000D2B700000000D2B63F
:0504BB0000000000221A
:10039A007E80EE601B5F7004C2B68002D2B6000097
:1003AA000000D2B700000000C2B7EEC313FE80E21D
:1003BA00D2B600000000D2B7A2B692010000000037
:0503CA00C2B7A201B35F
:0103CF00220B
:1003D000D2B67E80EE601D00000000D2B720B605C8
:1003E000F452078003EE420700000000C2B7EEC3DC
:1003F00013FE80E0D2B600000000D2B7000000007B
:02040000C2B781
:0104020022D7
:10040300D2B67E80EE601D00000000D2B720B60594
:10041300F452078003EE420700000000C2B7EEC3A8
:1004230013FE80E0C2B600000000D2B70000000057
:02043300C2B74E
:0104350022A4
:1004D4007580FFC290D291D295AF80C295EF20E78C
:0104E400F621
:0104E50022F4
:10051A00AE071204D4C290C2918E80D295C295229F
:10052A00AE071204D4D290C2918E80D295C295227F
:1004E600ED7004AC078004EF2440FCEC4480FF026E
:0204F600051AE5
:100466008B138A1489151204E6AB13AA14A9151264
:10047600000E60130515E5157002051414F9120037
:080486000EFF12052A80E2229C
:1004C0007F3812051A7F0C12051A7F0612051A7F53
:0404D0000102051A06
:1005090041494E30202041494E31202041494E3346
:0105190000E1
:0B053A00C1800118000119000117002A
:1002E500D2AF7F0A7E0012026C1204C07BFF7A0532
:1002F5007909E4FDFF1204663000FDC200E4FF1237
:1003050004361203437B007A0079097D01E4FF126C
:1003150004667F011204361203437B007A007909D3
:100325007D017F061204667F031204361203437BA8
:0E033500007A0079097D017F0C12046680BAFF
:020436008F1322
:100438001204F87F9012039A40061204AB7F002240
:10044800E5134440FF12039A1204F87F9112039AAD
:0D0458001204031203D08F141204ABAF1472
:010465002274
:0A0343008F087B007A007909AD08ED
:10034D008B138A148915ED75F019A4FFAEF07C009E
:10035D007DFF12005BAD07ED75F00A8424301200AD
:10036D0027AB13AA14A915900001742E120039EDB4
:10037D0075F00A84E5F024309000021200399000E7
:0D038D00037456120039900004E402003998
:10026C0075160075151075140E751300E4FCFDABB6
:10027C0016AA15A914A8131200B0E47BE87A03F9A6
:10028C00F812013B8F168E158D148C13C3E4951642
:10029C00F516E49515F51574019514F514E49513FC
:1002AC00F513E5162420F516E43515F515E435148B
:1002BC00F514E43513F513AF16AE15AD14FC780830
:1002CC001201CD8F188516195389F04389018518B1
:0802DC008C85198AD2A9D28C8D
:0102E40022F7
:03000B0002048E5E
:04048E00C0E0C0D03A
:1004920085188C85198A0517E517C3941E400575C2
:0404A2001700D2006D
:0504A600D0D0D0E032CF
:1001EC000202E5E493A3F8E493A34003F68001F242
:1001FC0008DFF48029E493A3F85407240CC8C33314
:10020C00C4540F4420C8834004F456800146F6DFE2
:10021C00E4800B010204081020408090053AE47E33
:10022C00019360BCA3FF543F30E509541FFEE493D7
:10023C00A360010ECF54C025E060A840B8E493A39E
:10024C00FAE493A3F8E493A3C8C582C8CAC583CAC9
:10025C00F0A3C8C582C8CAC583CADFE9DEE780BE81
:0105450000B5
:10000E00BB010689828A83E0225002E722BBFE02F0
:09001E00E32289828A83E4932223
:10002700BB010689828A83F0225002F722BBFE01B8
:02003700F322B2
:10003900F8BB010DE58229F582E5833AF583E8F0FD
:10004900225006E92582C8F622BBFE05E92582C8A9
:02005900F22291
:10005B00BC000BBE0029EF8DF084FFADF022E4CC89
:10006B00F875F008EF2FFFEE33FEEC33FCEE9DEC52
:10007B00984005FCEE9DFE0FD5F0E9E4CEFD22ED98
:10008B00F8F5F0EE8420D21CFEADF075F008EF2FE2
:10009B00FFED33FD4007985006D5F0F222C398FDD3
:0500AB000FD5F0EA2270
:1000B000E88FF0A4CC8BF0A42CFCE98EF0A42CFCEF
:1000C0008AF0EDA42CFCEA8EF0A4CDA8F08BF0A46D
:1000D0002DCC3825F0FDE98FF0A42CCD35F0FCEBCC
:1000E0008EF0A4FEA9F0EB8FF0A4CFC5F02ECD3991
:0F00F000FEE43CFCEAA42DCE35F0FDE43CFC22FE
:1000FF0075F008758200EF2FFFEE33FECD33CDCCB8
:10010F0033CCC58233C5829BED9AEC99E58298403A
:10011F000CF582EE9BFEED9AFDEC99FC0FD5F0D617
:10012F00E4CEFBE4CDFAE4CCF9A88222B800C1B941
:10013F000059BA002DEC8BF084CFCECDFCE5F0CB7F
:10014F00F97818EF2FFFEE33FEED33FDEC33FCEBB8
:10015F0033FB10D703994004EB99FB0FD8E5E4F973
:10016F00FA227818EF2FFFEE33FEED33FDEC33FC60
:10017F00C933C910D7059BE99A4007EC9BFCE99A54
:10018F00F90FD8E0E4C9FAE4CCFB2275F010EF2F99
:10019F00FFEE33FEED33FDCC33CCC833C810D70799
:1001AF009BEC9AE899400AED9BFDEC9AFCE899F8D4
:0E01BF000FD5F0DAE4CDFBE4CCFAE4C8F92267
:1001CD00E8600FECC313FCED13FDEE13FEEF13FF10
:0301DD00D8F12234
:00000001FF
